:020000040800F2
:100000000050002085480008CD480008CD48000871
:10001000CD480008CD480008CD4800080000000089
:10002000000000000000000000000000D13A0008BD
:10003000CD48000800000000993B00082542000858
:10004000CD480008CD480008CD480008CD4800083C
:10005000CD480008CD480008CD480008CD4800082C
:10006000CD480008CD480008CD480008CD4800081C
:10007000CD480008CD480008CD480008CD4800080C
:10008000CD480008CD480008CD480008CD480008FC
:100090002D420008CD480008CD480008CD48000892
:1000A000CD480008CD480008CD480008CD480008DC
:1000B000CD480008CD4800083D420008CD48000862
:1000C000CD480008CD480008CD480008CD480008BC
:1000D000CD480008CD480008CD480008CD480008AC
:1000E000CD480008CD480008CD48000800000000B9
:1000F0000000000000000000000000000000000000
:0C01000000000000000000005FF808F1A3
:10010C0010B5054C237833B9044B13B10448AFF345
:10011C0000800123237010BD64010020000000004A
:10012C001C490008084B10B51BB108490848AFF32F
:10013C0000800848036803B910BD074B002BFBD0A7
:10014C00BDE81040184700BF000000006801002007
:10015C001C490008640100200000000008B5074A93
:10016C00136843F010031360032000F025F80020FF
:10017C0004F014F803F0CAFF002008BD0020024070
:10018C00024A136801331360704700BF80010020DE
:10019C00014B1868704700BF8001002010B582B079
:1001AC000190FFF7F5FF0446FFF7F2FF001B019BE0
:1001BC009842F9D302B010BD074AD36823F4E06328
:1001CC001B041B0C000200F4E060184340F0BF60FD
:1001DC0040F40030D060704700ED00E030B4164BB6
:1001EC00DB68C3F30223C3F10704042C28BF0424E7
:1001FC001D1D062D01D9DD1E00E00025012303FA8B
:10020C0004F4013C2140A940AB40013B1A400A4395
:10021C00002806DA00F00F001201D2B2074B1A5474
:10022C0007E01201D2B200F1604000F5614080F8A5
:10023C00002330BC704700BF00ED00E014ED00E07F
:10024C00420900F01F00012303FA00F0014B43F8B0
:10025C002200704700E100E00138B0F1807F0AD243
:10026C00064B5860F021064A82F823100020986053
:10027C0007221A6070470120704700BF10E000E0B1
:10028C0000ED00E0042805D1054A136843F004038F
:10029C0013607047024A136823F00403136070471D
:1002AC0010E000E0F0B583B000263446D5E0012222
:1002BC00A2400B6813409A4240F0CE804D68122D3C
:1002CC002DD00BD8022D27D003D85DB3012D1ED015
:1002DC0035E0032D30D0112D1BD030E0614FBD42E5
:1002EC0020D008D8A7F58017BD421BD007F5803762
:1002FC00BD4224D116E05C4FBD4213D007F58037C8
:10030C00BD420FD0A7F58017BD4218D10AE0CE68C8
:10031C0015E0CE68043612E0CE6808360FE0CE68E1
:10032C000C360CE08D684DB1012D02D1026108260E
:10033C0005E04261082602E0002600E00426FF2BBF
:10034C0001D8864601E000F1040EFF2B01D8A20073
:10035C0002E0A4F108029200DEF800700F2595402F
:10036C0027EA050506FA02F22A43CEF800204A686D
:10037C0012F0805F70D03D4A956945F0010595619A
:10038C00926902F001020192019AA708BD1C384A39
:10039C0052F8255004F0030292004FF00F0E0EFAA3
:1003AC0002FE25EA0E0E334DA8420DD005F58065F0
:1003BC00A8420BD005F58065A84209D005F58065EB
:1003CC00A84207D1032506E0002504E0012502E040
:1003DC00022500E0042505FA02F24EEA0202023779
:1003EC00234D45F827204A6812F4803F05D005F5C7
:1003FC0080652A681A432A6004E01F4D2A6822EAA5
:10040C0003022A604A6812F4003F04D01A4D6A684D
:10041C001A436A6004E0184D6A6822EA03026A60B3
:10042C004A6812F4801F04D0134DAA681A43AA60BC
:10043C0004E0114DAA6822EA0302AA604A6812F489
:10044C00001F04D00C4DEA681343EB6004E00A4D26
:10045C00EA6822EA0303EB6001340F2C7FF627AF26
:10046C0003B0F0BD0000211000003110001002405C
:10047C00000001400008014000040140836819425B
:10048C0001D0012070470020704700BF0AB1016104
:10049C007047090401617047002867D0F0B587B038
:1004AC00044690F8E93313F0FF0F04D1002380F8D1
:1004BC00E83303F093FF032384F8E933206801F059
:1004CC0045FD254655F8107B6E460FCD0FC62B68A3
:1004DC003360231D0ECB384601F026FD0021206829
:1004EC0001F03EFD002310E004EB4312012182F8E1
:1004FC00291082F828309386002182F82B10916302
:10050C00D1639A1C5201A15001330E2BECD900235C
:10051C0012E004EB4312002182F8091282F808322F
:10052C00938682F80B12C2F81812C2F81C1203F14F
:10053C0011025201A15001330E2BEAD9254655F870
:10054C00107B6E460FCD0FC62B683360231D0ECB70
:10055C00384601F007FD002584F82450012384F867
:10056C00E933206802F024F8284601E001207047A6
:10057C0007B0F0BD90F8E833012B10D010B504464D
:10058C00012180F8E81304F077F8206802F00EF8E7
:10059C00206801F0D1FC002084F8E80310BD022093
:1005AC00704700BF90F8E833012B0DD010B504460E
:1005BC00012380F8E83380F82410006801F0F0FF84
:1005CC00002084F8E80310BD0220704738B54DB206
:1005DC00002D05DA01F07F0464012834044405E0A1
:1005EC0001F07F04640104F50274044401F07F01FE
:1005FC002170ED0F65702261E37090F8E833012BE8
:10060C000BD00546012380F8E8332146006801F041
:10061C00BDFC002085F8E80338BD022038BD00BFC2
:10062C004AB2002A05DA01F07F035B012833034448
:10063C0005E001F07F035B0103F50273034401F055
:10064C007F011970D20F5A7090F8E823012A0CD050
:10065C0010B50446012280F8E8231946006801F021
:10066C0033FE002084F8E80310BD0220704700BF61
:10067C0070B501F07F056C0104F50271014404446E
:10068C00C4F81C2205F11102520186188350002374
:10069C00736084F8093284F8085290F8E833012B1F
:1006AC000FD00446012380F8E8331DB9006801F02F
:1006BC009BFF02E0006801F097FF002084F8E8033C
:1006CC0070BD022070BD00BF01F07F01113100EB45
:1006DC0041108088704700BF70B501F07F056C0138
:1006EC0004F1280101440444E263AA1C5201861857
:1006FC00835000237360012384F8293084F8285038
:10070C0090F8E833012B0FD00446012380F8E8332E
:10071C001DB9006801F068FF02E0006801F064FF99
:10072C00002084F8E80370BD022070BD70B582B063
:10073C0005460023ADF80630ADF8043016E2BDF8DE
:10074C00064014F00F0440F0C880BDF8063003F0EA
:10075C0010039BB29BBB03889BB223F4E14323F0B1
:10076C0070039BB203802968B1F850309AB295F8A7
:10077C00283002EBC303023301EB4303D3F80034FC
:10078C00C3F309036B64EA6B1344EB630021284643
:10079C0003F056FE95F8243013F0FF0F00F0E681BD
:1007AC002B6C002B40F0E2812A6895F8243043F042
:1007BC008003A2F84C30002385F82430D6E103885E
:1007CC009BB2ADF80430BDF8043003F400639BB267
:1007DC0003B3B0F850309BB295F8082203EBC20378
:1007EC00063300EB4303D3F80034C3F30903C5F815
:1007FC002432B5F80C2205F57B7102F069F82A68F1
:10080C00138823F070031B051B0D1380284603F07F
:10081C0005FEABE1BDF8043013F4004F00F0A681E7
:10082C00038823F070031B051B0D03802868B0F8A8
:10083C0050309BB295F8082203EBC203063300EB51
:10084C004303D3F80034C3F30903C5F8243263B16E
:10085C00B5F80C22D5F81C1202F03AF8D5F81C2287
:10086C00D5F824321344C5F81C320021284603F075
:10087C00DDFD2A68B2F850309BB2063302EB43031D
:10088C00D5F818123E290ED9C1F34F1211F01F0FD3
:10089C0001D1013A92B26FEAC2626FEA524292B24D
:1008AC00C3F800240AE0C1F34F0211F0010F01D08C
:1008BC00013292B2920292B2C3F800242A681388D1
:1008CC009BB223F4804323F0700383F4405343F42E
:1008DC00004343F08003138048E130F824309BB28E
:1008EC00ADF80430BDF8043013F4004F00F09680DE
:1008FC0030F8243023F070031B051B0D20F8243036
:10090C0005EB441393F81232E3B92868B0F8503071
:10091C009BB205EB441292F8082203EBC203063398
:10092C0000EB4303B3F80064C6F30906002E52D063
:10093C0005EB44113346B1F80C22D1F81C1201F02E
:10094C00C7FF48E0286805EB441393F8081230F809
:10095C00213003F480439BB2B3B1B0F8502092B273
:10096C0002EBC103023300EB4303B3F80064C6F39C
:10097C000906FEB105EB44113346B1F80E22D1F84D
:10098C001C1201F0A5FF15E0B0F850309BB203EB40
:10099C00C103063300EB4303B3F80064C6F3090646
:1009AC0046B105EB44113346B1F81022D1F81C12B4
:1009BC0001F08EFF2A6805EB441393F8081232F805
:1009CC00213023F0F0031B051B0D43F4004343F0CF
:1009DC00C00322F8213004F111035B01E9184A68C5
:1009EC0032444A6005EB4411D1F81C223244C1F860
:1009FC001C22EB581BB1D1F818128E4207D205EB12
:100A0C00441393F80812284603F010FD06E005EB9A
:100A1C00441191F808122846FFF72AFEBDF804305D
:100A2C0003F080039BB2002B00F0A0802A6832F800
:100A3C0024309BB223F4E14323F070039BB222F8E1
:100A4C00243005EB441393F83230EBB92868B0F836
:100A5C0050309BB205EB441292F8282003EBC203F2
:100A6C00023300EB4303D3F80034C3F30903A21C95
:100A7C0005EB42125360002B51D005EB44118A8DCB
:100A8C00C96B01F09DFD4AE0286805EB441393F80F
:100A9C00281030F8213003F040039BB2BBB1B0F802
:100AAC00502092B202EBC103023300EB4303D3F8A4
:100ABC000034C3F30903A21C05EB42125360EBB1E3
:100ACC0005EB4411CA8DC96B01F07AFD16E0B0F844
:100ADC0050309BB203EBC103063300EB4303D3F856
:100AEC000034C3F30903A21C05EB421253602BB173
:100AFC0005EB44110A8EC96B01F062FD2A6805EB07
:100B0C00441393F8281032F8213023F0F0031B051E
:100B1C001B0D43F4404343F0800322F82130296835
:100B2C00B1F850309AB205EB441090F8283002EB33
:100B3C00C303023301EB4303D3F80034C3F30903BB
:100B4C00A11C49016A185360C26B1A44C2636B58EA
:100B5C002BB990F82810284603F072FC06E005EB40
:100B6C00441494F828102846FFF7B6FD2868B0F80E
:100B7C0044309BB2ADF8063013F4004F7FF4DFAD78
:100B8C00002002B070BD00BF10B50446006801F033
:100B9C0011FD10F4004F02D02046FFF7C7FD20686E
:100BAC0001F008FD10F4806F0FD02268B2F84430C9
:100BBC009BB223F480639BB2A2F84430204603F02E
:100BCC004FFC00212046FFF7EDFC206801F0F2FC01
:100BDC0010F4804F08D02268B2F844309BB223F452
:100BEC0080439BB2A2F84430206801F0E3FC10F47F
:100BFC00005F08D02268B2F844309BB223F4005353
:100C0C009BB2A2F84430206801F0D4FC10F4805F51
:100C1C0019D02268B2F840309BB223F004039BB287
:100C2C00A2F8403023684FF43D42A3F84020204600
:100C3C0003F032FC2268B2F844309BB223F48053A8
:100C4C009BB2A2F84430206801F0B4FC10F4006FA1
:100C5C0021D02268B2F844309BB223F400639BB2DB
:100C6C00A2F844302268B2F840309BB243F008033B
:100C7C00A2F840302268B2F840309BB243F0040333
:100C8C00A2F84030206801F095FC10F4805F02D18E
:100C9C00204603F0F1FB206801F08CFC10F4007F7F
:100CAC000BD02268B2F844309BB223F400739BB291
:100CBC00A2F84430204603F0CDFB206801F07AFC0A
:100CCC0010F4807F08D02268B2F844309BB223F431
:100CDC0080739BB2A2F8443010BD00BF38B54AB245
:100CEC00002A05DA01F07F035B012833034403E09B
:100CFC004B0103F50273034401249C7001F07F0443
:100D0C001C70D20F5A7090F8E823012A11D00546B6
:100D1C00012280F8E8231946006801F0BDFB24B9D4
:100D2C0005F57B71286801F049FC002085F8E80383
:100D3C0038BD022038BD00BF10B54AB2002A05DA12
:100D4C0001F07F035B012833034403E04B0103F5FF
:100D5C000273034400249C7001F07F011970D20FC0
:100D6C005A7090F8E823012A0BD00446012280F82F
:100D7C00E8231946006801F0C7FB002084F8E8035B
:100D8C0010BD022010BD00BF10B401F08004A4B24D
:100D9C002CB101F07F0149012831014403E04901E4
:100DAC0001F50271014412B98A728B8004E00122B0
:100DBC008A72CB801B0C0B81002010BC704700BFCB
:100DCC004FF4807393FAA3F3B3FA83F39B0003F10C
:100DDC00844303F5602301221A60704730B583B059
:100DEC000446036813F0010F00F09680B24B5B6869
:100DFC0003F00C03042B0AD0AF4B5B6803F00C031D
:100E0C00082B1BD1AC4B5B6813F4803F16D04FF40E
:100E1C00003393FAA3F3A84B1A684FF4003393FAF8
:100E2C00A3F3B3FA83F303F01F0322FA03F313F0D3
:100E3C00010F71D06368002B6ED1A0E26368B3F52B
:100E4C00803F05D19C4A136843F48033136026E03D
:100E5C0063B903F1804303F504331A6822F480323A
:100E6C001A601A6822F480221A6018E0B3F5A02FD9
:100E7C000CD103F18043A3F53C331A6842F4802271
:100E8C001A601A6842F480321A6008E08A4B1A68B9
:100E9C0022F480321A601A6822F480221A60636885
:100EAC00EBB1FFF775F9054605E0FFF771F9401B4B
:100EBC00642800F266824FF4003393FAA3F37E4B5E
:100ECC001A684FF4003393FAA3F3B3FA83F303F0E5
:100EDC001F0322FA03F313F0010FE6D01CE0FFF717
:100EEC0057F9054605E0FFF753F9401B642800F25B
:100EFC004A824FF4003393FAA3F36F4B1A684FF402
:100F0C00003393FAA3F3B3FA83F303F01F0322FA2B
:100F1C0003F313F0010FE6D1236813F0020F00F076
:100F2C009080654B5B6813F00C0F0AD0624B5B68CA
:100F3C0003F00C03082B27D15F4B5B6813F4803F45
:100F4C0022D1022393FAA3F35B4B1A68022393FA80
:100F5C00A3F3B3FA83F303F01F0322FA03F313F0A2
:100F6C00010F03D02369012B40F00F825248036814
:100F7C0023F0F8016369F82292FAA2F2B2FA82F233
:100F8C0093400B4303605CE023699BB3012292FA0C
:100F9C00A2F3B3FA83F39B0003F1844303F58403B8
:100FAC001A60FFF7F5F8054605E0FFF7F1F8401B6E
:100FBC00022800F2EC81022393FAA3F33E4B1A6849
:100FCC00022393FAA3F3B3FA83F303F01F0322FA79
:100FDC0003F313F0010FE8D03748036823F0F8014E
:100FEC006369F82292FAA2F2B2FA82F293400B43AE
:100FFC00036026E0012393FAA3F3B3FA83F39B0077
:10100C0003F1844303F5840300221A60FFF7C0F850
:10101C00054605E0FFF7BCF8401B022800F2B98139
:10102C00022393FAA3F3244B1A68022393FAA3F333
:10103C00B3FA83F303F01F0322FA03F313F0010F47
:10104C00E8D1236813F0080F52D0A3693BB30122F7
:10105C0092FAA2F3B3FA83F3184941F82320FFF76D
:10106C0097F8054605E0FFF793F8401B022800F2BD
:10107C009281022393FAA3F293FAA3F20E4A526AD4
:10108C0093FAA3F3B3FA83F303F01F0322FA03F3E7
:10109C0013F0010FE7D00120FFF780F828E00123BF
:1010AC0093FAA3F3B3FA83F30021044A42F8231012
:1010BC00FFF76EF8054609E000100240800442423A
:1010CC00FFF766F8401B022800F26781022393FAAF
:1010DC00A3F293FAA3F2BA4A526A93FAA3F3B3FABD
:1010EC0083F303F01F0322FA03F313F0010FE7D18C
:1010FC00236813F0040F00F0A180B14BDA6942F0C1
:10110C008052DA61DB6903F080530193019BAD4A95
:10111C00136843F480731360FFF73AF8054605E053
:10112C00FFF736F8401B642800F23981A54B1B6889
:10113C0013F4807FF4D0E368012B05D1A04A136A25
:10114C0043F00103136222E063B903F1804303F51A
:10115C0004331A6A22F001021A621A6A22F004029B
:10116C001A6214E0052B09D1954B1A6A42F004025D
:10117C001A621A6A42F001021A6208E0904B1A6A6B
:10118C0022F001021A621A6A22F004021A62E3685F
:10119C0053B3FEF7FDFF054607E0FEF7F9FF401BD2
:1011AC0041F28833984200F2FC80022393FAA3F2B6
:1011BC0093FAA3F3B3FA83F35B0943F00203DBB2B4
:1011CC00022B02D17E4B1A6A01E07D4B5A6A022334
:1011DC0093FAA3F3B3FA83F303F01F0322FA03F396
:1011EC0013F0010FD9D029E0FEF7D2FF054607E036
:1011FC00FEF7CEFF401B41F28833984200F2D380B9
:10120C00022393FAA3F293FAA3F3B3FA83F35B09E1
:10121C0043F00203DBB2022B02D1694B1A6A01E0E4
:10122C00674B5A6A022393FAA3F3B3FA83F303F0DE
:10123C001F0322FA03F313F0010FD9D1E369002B3A
:10124C0000F0B3805E4A526802F00C02082A00F0EB
:10125C00AE80022B68D14FF0807393FAA3F3B3FAEC
:10126C0083F39B0003F1844303F5840300221A608B
:10127C00FEF78EFF054605E0FEF78AFF401B0228AD
:10128C0000F297804FF0007393FAA3F34C4B1A685B
:10129C004FF0007393FAA3F3B3FA83F303F01F0335
:1012AC0022FA03F313F0010FE6D1236AB3F5803F62
:1012BC0006D143494B6823F40032A36813434B60B7
:1012CC003F48436823F47411236A626A13430B4347
:1012DC0043604FF0807393FAA3F3B3FA83F39B004C
:1012EC0003F1844303F5840301221A60FEF750FFD7
:1012FC00044604E0FEF74CFF001B02285BD84FF0BD
:10130C00007393FAA3F32E4B1A684FF0007393FA01
:10131C00A3F3B3FA83F303F01F0322FA03F313F0DE
:10132C00010FE7D0002049E04FF0807393FAA3F34C
:10133C00B3FA83F39B0003F1844303F58403002287
:10134C001A60FEF725FF044604E0FEF721FF001BA0
:10135C00022832D84FF0007393FAA3F3184B1A6893
:10136C004FF0007393FAA3F3B3FA83F303F01F0364
:10137C0022FA03F313F0010FE7D100201EE0012045
:10138C001CE003201AE0032018E0012016E00320E3
:10139C0014E0032012E0032010E003200EE00320F1
:1013AC000CE003200AE0032008E0002006E0012006
:1013BC0004E0032002E0032000E0032003B030BD72
:1013CC00001002400070004030B486B01F4D02ACDB
:1013DC0028686968AA68EB680FC42B8AADF80430DA
:1013EC001B4B5B6803F00C02082A2AD103F4701122
:1013FC004FF4701292FAA2F2B2FA82F221FA02F2CD
:10140C0006A90A4412F8102C13F4803F15D0104B87
:10141C005B6803F400314FF4003393FAA3F3B3FA8F
:10142C0083F321FA03F306A90B4413F8140C094BAC
:10143C00B3FBF0F000FB02F004E0074800FB02F005
:10144C0000E0044806B030BC704700BF34490008C7
:10145C000010024000127A0000093D0070B5744B78
:10146C001B6803F007038B420BD2714A136823F0FD
:10147C0007030B431360136803F00703994240F012
:10148C00C680036813F0020F06D06A4C636823F021
:10149C00F0028368134363600D460446036813F03F
:1014AC00010F75D04268012A13D14FF4003393FA1F
:1014BC00A3F3604B19684FF4003393FAA3F3B3FA18
:1014CC0083F303F01F0321FA03F313F0010F27D169
:1014DC009FE0022A13D14FF0007393FAA3F3554BFC
:1014EC0019684FF0007393FAA3F3B3FA83F303F084
:1014FC001F0321FA03F313F0010F11D18BE0022328
:10150C0093FAA3F34B4B1968022393FAA3F3B3FAA0
:10151C0083F303F01F0321FA03F313F0010F7CD0C4
:10152C0044494B6823F0030313434B60FEF730FE32
:10153C0006466368012B0ED106E0FEF729FE801BE0
:10154C0041F2883398426AD83A4B5B6803F00C033B
:10155C00042BF2D11CE0022B15D106E0FEF718FE8D
:10156C00801B41F2883398425BD8324B5B6803F0A6
:10157C000C03082BF2D10BE0FEF70AFE801B41F2A4
:10158C00883398424FD82B4B5B6813F00C0FF3D178
:10159C00274B1B6803F007039D420AD2244A1368A9
:1015AC0023F007032B431360136803F007039D42DA
:1015BC003BD1236813F0040F06D01E494B6823F46B
:1015CC00E062E36813434B60236813F0080F07D005
:1015DC00184A536823F46053216943EAC1035360EA
:1015EC00FFF7F2FE134B5B6803F0F002F02393FA63
:1015FC00A3F3B3FA83F322FA03F30F4AD35CD84074
:10160C000E4B1860002002F0C9FD002070BD0120B7
:10161C0070BD012070BD012070BD012070BD032084
:10162C0070BD032070BD032070BD012070BD00BFD4
:10163C0000200240001002408449000814010020E0
:10164C00014B1868704700BF1401002008B5FFF764
:10165C00F7FF084B5B6803F4E0624FF4E06393FA26
:10166C00A3F3B3FA83F322FA03F3034AD35CD8400F
:10167C0008BD00BF001002409449000808B5FFF7F0
:10168C00DFFF084B5B6803F460524FF4605393FA2E
:10169C00A3F3B3FA83F322FA03F3034AD35CD840DF
:1016AC0008BD00BF00100240944900080F230360DE
:1016BC000B4B5A6802F0030242605A6802F0F002C7
:1016CC0082605A6802F4E062C2605B68DB0803F473
:1016DC00E0630361034B1B6803F007030B60704767
:1016EC000010024000200240F0B583B004460368AD
:1016FC0013F0010F6FD0474BDA6942F08052DA6178
:10170C00DB6903F080530193019B434A136843F454
:10171C0080731360FEF73CFD054604E0FEF738FDD0
:10172C00401B64286FD83C4B1B6813F4807FF5D0AA
:10173C00384B1B6A13F4407346D0626802F4407253
:10174C00934241D03348016A21F440764FF4803300
:10175C0093FAA3F2B2FA82F2304D012745F82270C7
:10176C0093FAA3F3B3FA83F3002245F8232006621D
:10177C0011F0010F28D0FEF70BFD054606E0FEF731
:10178C0007FD401B41F2883398423ED8022393FA5E
:10179C00A3F293FAA3F3B3FA83F35B0943F00203C6
:1017AC00DBB2022B02D11B4B1A6A01E0194B5A6AAD
:1017BC00022393FAA3F3B3FA83F303F01F0322FA81
:1017CC0003F313F0010FDAD012490B6A23F44072C1
:1017DC00636813430B62236813F0020F06D00D49A4
:1017EC004B6823F44042A36813434B60236813F007
:1017FC00100F0CD007494B6823F48002E3681343A5
:10180C004B60002004E0032002E0032000E00020F5
:10181C0003B0F0BD001002400070004000044242D2
:10182C0070B586B00646474D02AC28686968AA6850
:10183C00EB680FC42B8AADF80430022E5ED0102E4C
:10184C0002D0012E6DD13DE03F4B5A681B6813F05E
:10185C00807F68D002F470114FF4701393FAA3F3E5
:10186C00B3FA83F321FA03F306A90B4413F8103CE3
:10187C0012F4803216D03449496801F400304FF428
:10188C00003191FAA1F1B1FA81F120FA01F106A827
:10189C00014411F8140C4AB12C4AB2FBF0F000FBD5
:1018AC0003F004E02A4800FB03F000E00020264B84
:1018BC005B6813F4800F42D14000264BA3FB003031
:1018CC0040083CE0204B1B6A40F202321A40B2F551
:1018DC00817F2AD003F44073B3F5007F04D11A4AF8
:1018EC00526A12F0020F23D1B3F5407F23D1164B6D
:1018FC001B6813F4003F20D1002020E0FFF7BEFE50
:10190C00114B5B6803F440424FF4804393FAA3F30A
:10191C00B3FA83F322FA03F301335B00B0FBF3F069
:10192C000DE000200BE0002009E04FF4004006E041
:10193C0049F6404003E0002001E04FF2244006B09D
:10194C0070BD00BF484900080010024000127A0028
:10195C0000093D00ABAAAAAA38B50446FEF718FC4C
:10196C00054605E0FEF714FC401BB0F57A7F0AD85B
:10197C0023685A6812F0200FF4D05A6842F0100213
:10198C005A60002038BD032038BD00BF38B504466E
:10199C000268536823F010035360FEF7F9FB054609
:1019AC0005E0FEF7F5FB401BB0F57A7F06D82368FF
:1019BC005B6813F0200FF4D0002038BD032038BD35
:1019CC00B8B138B504460268536823F00803536075
:1019DC00FEF7DEFB054605E0FEF7DAFB401BB0F533
:1019EC007A7F08D823685B6813F0080FF4D00020C6
:1019FC0038BD01207047032038BD00BF002859D0E6
:101A0C0010B50446437C13F0FF0F03D1002303747D
:101A1C0002F056FB022363742046FFF7D1FF18B186
:101A2C0004236374012348E02046FFF795FF18B1A7
:101A3C0004236374012340E02268536823F00703F6
:101A4C005360A36823B11E4A136B23F00103136385
:101A5C001B49CB6A23F46072A3681343CB626068A2
:101A6C00B0F1FF3F08D10120FFF7DAFE18B90423CB
:101A7C006374012321E001382268936823F00F037B
:101A8C0043EA104393602268D3681B0C1B0480B29A
:101A9C001843D0602046FFF779FF034618B10423A2
:101AAC006374012309E00022E27301226273A273C2
:101ABC00627402E0012318467047184610BD00BF3F
:101ACC00006C0040704700BF0268D36843F001030C
:101ADC00D3600268136843F0010313600020704761
:101AEC00704700BF704700BF704700BF704700BF12
:101AFC0010B5044603681A6912F0020F17D0DA68A1
:101B0C0012F0020F13D06FF002021A610123037658
:101B1C0003689B6913F0030F02D0FFF7E3FF04E0A7
:101B2C00FFF7DEFF2046FFF7DFFF00232376236855
:101B3C001A6912F0040F19D0DA6812F0040F15D0DC
:101B4C006FF004021A610223237623689B6913F455
:101B5C00407F03D02046FFF7C5FF05E02046FFF786
:101B6C00BFFF2046FFF7C0FF0023237623681A69C6
:101B7C0012F0080F19D0DA6812F0080F15D06FF0B8
:101B8C0008021A61042323762368DB6913F0030F20
:101B9C0003D02046FFF7A6FF05E02046FFF7A0FF85
:101BAC002046FFF7A1FF0023237623681A6912F061
:101BBC00100F19D0DA6812F0100F15D06FF0100258
:101BCC001A61082323762368DB6913F4407F03D062
:101BDC002046FFF787FF05E02046FFF781FF2046F0
:101BEC00FFF782FF0023237623681A6912F0010F96
:101BFC0009D0DA6812F0010F05D06FF001021A61FA
:101C0C00204602F0D5F923681A6912F0800F09D02A
:101C1C00DA6812F0800F05D06FF080021A6120464E
:101C2C0000F072F823681A6912F0400F09D0DA68D4
:101C3C0012F0400F05D06FF040021A612046FFF7FA
:101C4C0055FF23681A6912F0200F09D0DA6812F0D8
:101C5C00200F05D06FF020021A61204600F052F8D8
:101C6C0010BD00BF0368184A90420AD0B0F1804FF3
:101C7C0007D0A2F59432904203D002F580629042D4
:101C8C0003D123F070034A6813430F4A90420AD0E1
:101C9C00B0F1804F07D0A2F59432904203D002F5F8
:101CAC008062904203D123F44073CA6813430360EB
:101CBC008B68C3620B688362034B984201D10B693A
:101CCC000363012343617047002C0140B8B110B588
:101CDC00044690F8393013F0FF0F04D1002380F83C
:101CEC003830FFF7EFFE022384F83930211D2068CD
:101CFC00FFF7B8FF012384F83930002010BD012014
:101D0C00704700BF704700BF704700BF2DE9F84314
:101D1C00814601680B6923F44052C36813430B617D
:101D2C00816803691943436919430068C26822F446
:101D3C00B05323F00C030B43C360D9F800104B696C
:101D4C0023F44072D9F8183013434B61D9F8005082
:101D5C005B4B9D4259D1FFF791FC00EB800000EBEF
:101D6C008000D9F80440A400B0FBF4F4554EA6FB57
:101D7C00043464092401FFF781FC00EB800000EBC4
:101D8C008000D9F804309B00B0FBF3F7FFF776FC2A
:101D9C0000EB800000EB8000D9F804309B00B0FB16
:101DAC00F3F3A6FB03235B094FF0640808FB1373E2
:101DBC001B013233A6FB03235B0903F0F0031C4425
:101DCC00FFF75CFC00EB800000EB8000D9F80430DE
:101DDC009B00B0FBF3F7FFF751FC00EB800000EB2E
:101DEC008000D9F804309B00B0FBF3F3A6FB03236F
:101DFC005B0908FB13731B013233A6FB0323C3F3EC
:101E0C0043131C44AC60BDE8F883FFF71FFC00EBE8
:101E1C00800000EB8000D9F80440A400B0FBF4F47F
:101E2C00284EA6FB043464092401FFF70FFC00EBD9
:101E3C00800000EB8000D9F804309B00B0FBF3F776
:101E4C00FFF704FC00EB800000EB8000D9F80430B5
:101E5C009B00B0FBF3F3A6FB03235B094FF0640874
:101E6C0008FB13731B013233A6FB03235B0903F03E
:101E7C00F0031C44FFF7EAFB00EB800000EB800052
:101E8C00D9F804309B00B0FBF3F7FFF7DFFB00EB56
:101E9C00800000EB8000D9F804309B00B0FBF3F31A
:101EAC00A6FB03235B0908FB13731B013233A6FB50
:101EBC000323C3F343131C44AC60BDE8F88300BF99
:101ECC00003801401F85EB5158B310B5044690F80B
:101EDC00393013F0FF0F04D1002380F8383002F0B2
:101EEC00F3F9022384F839302268D36823F40053C1
:101EFC00D3602046FFF70AFF2268136923F490434E
:101F0C0013612268536923F02A0353612268D36852
:101F1C0043F40053D3600020E063012384F839308C
:101F2C0010BD0120704700BF84B001A880E80E00EE
:101F3C00002004B0704700BFB0F840309BB243F4AF
:101F4C003D43A0F840300020704700BFB0F840304F
:101F5C0023F474535B045B0CA0F8403000207047F2
:101F6C000020704784B010B402AC84E80E0001234A
:101F7C00A0F840300023A0F84030A0F84430A0F87E
:101F8C005030184610BC04B0704700BF10B4CB786A
:101F9C00032B35D8DFE803F002280F1B0A7830F842
:101FAC0022309BB223F4EC4323F0700343F4007310
:101FBC0020F8223024E00A7830F822309BB223F447
:101FCC00EC4323F070039BB220F8223018E00A781F
:101FDC0030F822309BB223F4EC4323F0700343F42B
:101FEC00C06320F822300BE00A7830F822309BB224
:101FFC0023F4EC4323F0700343F4806320F8223085
:10200C000A7830F8223023F0F0031B051B0D134324
:10201C0043F4004343F0800320F822308B7A002BEA
:10202C0040F08B804B7883B3B0F850309BB20A7879
:10203C0003EBC20300EB43038A8852085200C3F837
:10204C0000240A7830F8223003F040039BB25BB1D5
:10205C0030F8223023F0F0031B051B0D43F4004332
:10206C0043F0C00320F822300A7830F822309BB2BB
:10207C0023F4E04323F0400383F0200343F40043B4
:10208C0043F0800320F822301BE1B0F850309BB2B3
:10209C000A7803EBC203043300EB43038A8852082B
:1020AC005200C3F80024B0F850309BB20A7803EB0E
:1020BC00C203063300EB43030C693E2C0ED9C4F368
:1020CC004F1214F01F0F01D1013A92B26FEAC262A3
:1020DC006FEA524292B2C3F800240AE0C4F34F02F2
:1020EC0014F0010F01D0013292B2920292B2C3F8F5
:1020FC0000240A7830F8223003F480439BB25BB1A1
:10210C0030F8223023F0F0031B051B0D43F4404341
:10211C0043F0800320F822300A7830F822309BB24A
:10212C0023F4804323F0700383F4405343F40043BF
:10213C0043F0800320F82230C3E00A7830F82230D4
:10214C0023F4F8731B051B0D43F4014343F0800388
:10215C0020F82230B0F850309BB20A7803EBC2035F
:10216C0000EB4303CA8852085200C3F80024B0F8AD
:10217C0050309BB20A7803EBC203043300EB4303E9
:10218C000A8952085200C3F800244B78002B4DD119
:10219C000A7830F8223003F480439BB25BB130F8FC
:1021AC00223023F0F0031B051B0D43F4404343F096
:1021BC00800320F822300A7830F8223003F04003F4
:1021CC009BB25BB130F8223023F0F0031B051B0DE2
:1021DC0043F4004343F0C00320F822300A7830F86F
:1021EC00223023F0F0031B051B0D43F4004343F096
:1021FC00C00320F822300C7830F824309BB223F442
:10220C00804323F0700383F4405348F2800213435D
:10221C0020F82430097830F821309BB223F4E043C5
:10222C0023F04003134320F821304AE00A7830F8B9
:10223C00223003F480439BB25BB130F8223023F0A0
:10224C00F0031B051B0D43F4404343F0800320F8BF
:10225C0022300A7830F8223003F040039BB25BB195
:10226C0030F8223023F0F0031B051B0D43F4004320
:10227C0043F0C00320F822300A7830F8223023F0E3
:10228C00F0031B051B0D43F4404343F0800320F87F
:10229C0022300C7830F824309BB223F4E04323F046
:1022AC00400348F28002134320F82430097830F8B8
:1022BC0021309BB223F4804323F07003134320F8A6
:1022CC002130002010BC70478B7A002B46D14B7804
:1022DC0013B30A7830F8223003F040039BB25BB1A1
:1022EC0030F8223023F0F0031B051B0D43F40043A0
:1022FC0043F0C00320F822300A7830F822309BB229
:10230C0023F4E04323F0400343F4004343F0800301
:10231C0020F82230002070470A7830F8223003F47D
:10232C0080439BB25BB130F8223023F0F0031B05E5
:10233C001B0D43F4404343F0800320F822300A780D
:10234C0030F822309BB223F4804323F0700343F423
:10235C00004343F0800320F82230DBE710B44B78C5
:10236C00002B4BD10A7830F8223003F480439BB217
:10237C005BB130F8223023F0F0031B051B0D43F446
:10238C00404343F0800320F822300A7830F82230A2
:10239C0003F040039BB25BB130F8223023F0F00322
:1023AC001B051B0D43F4004343F0C00320F82230FF
:1023BC000A7830F8223023F0F0031B051B0D43F490
:1023CC00004343F0C00320F822300C7830F824305E
:1023DC009BB223F4804323F0700348F28002134332
:1023EC0020F82430097830F821309BB223F4E043F4
:1023FC0023F04003134320F821304AE00A7830F8E8
:10240C00223003F480439BB25BB130F8223023F0CE
:10241C00F0031B051B0D43F4404343F0800320F8ED
:10242C0022300A7830F8223003F040039BB25BB1C3
:10243C0030F8223023F0F0031B051B0D43F400434E
:10244C0043F0C00320F822300A7830F8223023F011
:10245C00F0031B051B0D43F4404343F0800320F8AD
:10246C0022300C7830F824309BB223F4E04323F074
:10247C00400348F28002134320F82430097830F8E6
:10248C0021309BB223F4804323F07003134320F8D4
:10249C002130002010BC70470A788AB930F82230FD
:1024AC009BB223F4804323F0400383F4805383F0E6
:1024BC00100343F4004343F0800320F8223020E063
:1024CC004B787BB130F822309BB223F4E04323F0FD
:1024DC00400383F0100343F4004343F0800320F8DF
:1024EC0022300EE030F822309BB223F4804323F0EC
:1024FC00700383F4805343F4004343F0800320F8CB
:10250C0022300020704700BF4B781BB30A7830F89C
:10251C00223003F040039BB25BB130F8223023F041
:10252C00F0031B051B0D43F4004343F0C00320F8DC
:10253C0022300A7830F822309BB223F4E04323F0A7
:10254C00400383F0300343F4004343F0800320F84E
:10255C00223022E00A7830F8223003F480439BB218
:10256C005BB130F8223023F0F0031B051B0D43F454
:10257C00404343F0800320F822300A7830F82230B0
:10258C009BB223F4804323F0700383F4405343F451
:10259C00004343F0800320F822300020704700BF36
:1025AC0011B98023A0F84C300020704700207047F0
:1025BC0000207047B0F8440080B27047002070478C
:1025CC0010B401335B1000EB420202F5806207E0AD
:1025DC000C78487844EA002422F8044B0231013B81
:1025EC00002BF5D110BC704770B54A78012A40F029
:1025FC00C2808E690B699E4203D9F61A8E611E4603
:10260C0001E000238B610D4604468B7A83B9B3B28B
:10261C008A884969FFF7D4FFB4F850309BB22A7806
:10262C0003EBC203023304EB4303C3F8006491E0F1
:10263C00097830F8213003F040039BB29BB322BBE6
:10264C00B0F850309BB203EBC101063100EB4101F5
:10265C003E2E0ED9C6F34F1316F01F0F01D1013BBE
:10266C009BB26FEAC3636FEA53439BB2C1F8003469
:10267C0017E0C6F34F0316F0010F01D001339BB2E4
:10268C009B029BB2C1F800340BE0012A09D1B0F8CF
:10269C0050309BB203EBC103023300EB4303C3F88E
:1026AC0000642A8932E022BBB0F850309BB203EBB5
:1026BC00C101023100EB41013E2E0ED9C6F34F137E
:1026CC0016F01F0F01D1013B9BB26FEAC3636FEA97
:1026DC0053439BB2C1F8003417E0C6F34F0316F016
:1026EC00010F01D001339BB29B029BB2C1F80034A5
:1026FC000BE0012A09D1B0F850309BB203EBC103B7
:10270C00023300EB4303C3F80064EA88B3B269698F
:10271C002046FFF755FF6B786BB92A7834F82230D6
:10272C0023F0F0031B051B0D43F4004343F0C003DF
:10273C0024F822300EE0012B0CD12A7834F8223008
:10274C0023F0F0031B051B0D43F4404343F08003BF
:10275C0024F822302A7834F822309BB223F4E04358
:10276C0023F0400383F0300343F4004343F0800331
:10277C0024F82230AAE08B690C69A34203D91B1BF5
:10278C008B61234601E000248C618C7A2CBBB0F861
:10279C00502092B20C7802EBC402063200EB4202DB
:1027AC003E2B0ED9C3F34F1413F01F0F01D1013C74
:1027BC00A4B26FEAC4646FEA5444A4B2C2F80044F1
:1027CC0074E0C3F34F0413F0010F01D00134A4B231
:1027DC00A402A4B2C2F8004468E02ABBB0F85020AE
:1027EC0092B20C7802EBC402023200EB42023E2B96
:1027FC000ED9C3F34F1413F01F0F01D1013CA4B237
:10280C006FEAC4646FEA5444A4B2C2F8004418E0FE
:10281C00C3F34F0413F0010F01D00134A4B2A4028E
:10282C00A4B2C2F800440CE0012A0AD1B0F850203E
:10283C0092B20C7802EBC402023200EB4202C2F8F4
:10284C0000344A782ABBB0F8502092B20C7802EBD4
:10285C00C402063200EB42023E2B0ED9C3F34F14D6
:10286C0013F01F0F01D1013CA4B26FEAC4646FEAEC
:10287C005444A4B2C2F8004418E0C3F34F0413F05C
:10288C00010F01D00134A4B2A402A4B2C2F80044D6
:10289C000CE0012A0AD1B0F8502092B20C7802EB6D
:1028AC00C402023200EB4202C2F800340A7830F85B
:1028BC0022309BB223F4804323F0700383F4405303
:1028CC0043F4004343F0800320F82230002070BD15
:1028DC0001335B1000EB420202F5806204E01068E9
:1028EC0021F8020B013B0432002BF8D1704700BFDA
:1028FC00D0F818321BB10020C3F814027047022024
:10290C00704700BF10B5D0F81842D0F81C325BB13C
:10291C0094F80002FF2807D09B6894F80122214606
:10292C009847FF2384F80032002010BD4323038016
:10293C000048704700000020432303800048704784
:10294C004400002043230380004870478800002087
:10295C000A23038000487047CC00002038B5044699
:10296C00D0F8185201F07CFEC5F80C02D4F81832DD
:10297C004BB1D4F81C32DB6805F50371D5F80402B1
:10298C009847002038BD022038BD00BF70B5054601
:10299C000C46D0F818620B7813F0600224D0202A71
:1029AC0029D1CA88CAB113F0800F0BD0D0F81C32D1
:1029BC009B68314660789847E2883146284600F09B
:1029CC0087FC18E04B7886F80032CB8886F8013209
:1029DC00CA88314600F092FC0DE0D0F81C329B689E
:1029EC0000224878984706E04B780A2B03D1012245
:1029FC00024900F06DFC002070BD00BF8401002076
:102A0C0010B50446812101F0B7FD0121204601F0EB
:102A1C00B3FD8221204601F0AFFDD4F8183253B13A
:102A2C00D4F81C325B689847D4F8180201F022FEE7
:102A3C000023C4F81832002010BD00BF38B504467E
:102A4C00037C6BB94FF400730222812101F082FDEB
:102A5C004FF4007302220121204601F07BFD0AE0B5
:102A6C0040230222812101F075FD40230222012125
:102A7C00204601F06FFD082303228221204601F03D
:102A8C0069FD4FF4077001F0F1FD0546C4F818021A
:102A9C00E8B1D4F81C321B6898470023C5F81432EF
:102AAC00C5F81832237C4BB94FF40073D5F80422C7
:102ABC000121204601F0C4FD002038BD4023D5F88B
:102ACC0004220121204601F0BBFD002038BD01206D
:102ADC0038BD00BF19B1C0F81C120020704702208D
:102AEC00704700BFD0F81832C3F80812C3F8102290
:102AFC0000207047D0F81832C3F804120020704739
:102B0C00D0F818227AB108B5D2F814326BB9012377
:102B1C00C2F81432B2F81032D2F80822812101F036
:102B2C007FFD002008BD02207047012008BD00BFBA
:102B3C00D0F818229AB108B5037C43B94FF400734E
:102B4C00D2F80422012101F07BFD002008BD4023B6
:102B5C00D2F80422012101F073FD002008BD0220EF
:102B6C00704700BF98B108B50346D0F8140210B1F5
:102B7C000020C3F8140209B1C3F81012184601233F
:102B8C0080F8FC31027001F08DFC002008BD0220A1
:102B9C00704700BF19B1C0F8141200207047022012
:102BAC00704700BF08B501F0C5FC002008BD00BF90
:102BBC0008B5D0F8143223B11B68984718B102201D
:102BCC0008BD022008BD002008BD00BF08B5D0F824
:102BDC0014325B689847002008BD00BF38B5044626
:102BEC0000F50275284600F00BF90123C4F8F43106
:102BFC00B4F80E32C4F8F83194F8081201F01F033F
:102C0C00012B08D013B1022B0AD00EE02946204626
:102C1C0000F072FA0EE02946204600F091FA09E025
:102C2C002946204600F0A8FA04E001F08001204675
:102C3C0001F0B2FC002038BD10B5044611BB1346A0
:102C4C00D0F8F421032A28D1D0F80C11D0F8102197
:102C5C0091420AD9891AC0F80C118A4228BF0A4637
:102C6C0092B2194600F05AFB17E0D0F814321B69E7
:102C7C0023B190F8FC21032A00D19847204600F09C
:102C8C0055FB0AE00A46D0F814329B692BB190F838
:102C9C00FC11032901D111469847002010BD00BF3B
:102CAC0010B50446002943D11346D0F8F421022A6A
:102CBC0036D1C169026A91420CD98A1AC26192B2A8
:102CCC00194600F013FB00231A461946204601F062
:102CDC00B7FC25E08169B1FBF2F302FB131393B946
:102CEC008A4210D8D0F8F83199420CD20022114601
:102CFC0000F0FCFA0021C4F8F8110B460A462046F5
:102D0C0001F09EFC0CE0D4F81432DB682BB194F883
:102D1C00FC21032A01D120469847204600F012FBE3
:102D2C0094F80032012B0ED1002384F800320AE013
:102D3C000A46D0F814325B692BB190F8FC110329C8
:102D4C0001D111469847002010BD00BF38B504468C
:102D5C0040230022114601F0FDFB4025C4F8105120
:102D6C002B4600228021204601F0F4FB2562012332
:102D7C0084F8FC31D4F818322BB1D4F814325B68D7
:102D8C00217920469847002038BD00BF01740020EF
:102D9C00704700BF90F8FC3180F8FD31042380F8B7
:102DAC00FC310020704700BF90F8FD3180F8FC31F9
:102DBC000020704708B590F8FC31032B04D1D0F8F3
:102DCC001432DB6903B19847002008BD034600208C
:102DDC0002E00130C0B201331A78002AF9D17047F1
:102DEC004B88012B0BD110B50446C0F80432D0F837
:102DFC0014329B689847204600F098FA10BD704733
:102E0C000B7803704B7843708B78CA7803EB0223F2
:102E1C0043800B794A7903EB022383808B79CA793F
:102E2C0003EB0223C380704710B50446802101F0E8
:102E3C00B3FB0021204601F0AFFB10BD30B583B0D1
:102E4C0004460D464A88130A013B062B79D8DFE865
:102E5C0003F0040C2078785C6900D0F810321B6801
:102E6C000DF10601007C98476FE0037C43B9D0F864
:102E7C0014329B6A0DF1060098470223437064E0FC
:102E8C00D0F81432DB6A0DF1060098470223437028
:102E9C005BE0D2B2052A34D8DFE802F0030B131B37
:102EAC00232BD0F810325B680DF10601007C98479B
:102EBC004BE0D0F810329B680DF10601007C98476E
:102ECC0043E0D0F81032DB680DF10601007C984726
:102EDC003BE0D0F810321B690DF10601007C9847DD
:102EEC0033E0D0F810325B690DF10601007C984795
:102EFC002BE0D0F810329B690DF10601007C98474D
:102F0C0023E02946FFF790FF2DE0037C33B9D0F87E
:102F1C0014325B6B0DF10600984716E02946FFF75B
:102F2C0083FF20E0037C43B9D0F814321B6B0DF106
:102F3C00060098470723437007E02946FFF774FF04
:102F4C0011E02946FFF770FF0DE0BDF8063053B1D4
:102F5C00EA8842B19A4228BF1A46ADF806200146CB
:102F6C00204600F0B5F903B030BD00BF38B50446BB
:102F7C008B88E3B9CB88D3B98D7805F07F0590F8B1
:102F8C00FC31032B02D1FFF74FFF38BD80F8FE5107
:102F9C00294601F035FB204600F0C8F91DB102238B
:102FAC0084F8FC3138BD012384F8FC3138BD20464F
:102FBC00FFF73AFF38BD00BF38B504460D46897897
:102FCC00264B1970012903D92946FFF72DFF38BD6F
:102FDC0090F8FC31022B02D0032B15D039E081B1D3
:102FEC004160032380F8FC31FFF7E2FD022804D195
:102FFC0029462046FFF718FF38BD204600F096F909
:10300C0038BD00F093F938BD49B9022380F8FC3182
:10301C004160FFF7DBFD204600F088F938BD4368BE
:10302C00994213D0D9B2FFF7D1FD0C4B19786160DE
:10303C002046FFF7BDFD022804D129462046FFF7A4
:10304C00F3FE38BD204600F071F938BD00F06EF982
:10305C0038BD2946FFF7E8FE38BD00BF85010020CA
:10306C0008B5CB88012B02D0FFF7DEFE08BD90F827
:10307C00FC31022B02D0032B08D00CE001460023BC
:10308C0041F8083F012200F023F908BD0122011D7F
:10309C0000F01EF908BDFFF7C7FE08BD08B590F893
:1030AC00FC31023B012B0CD80123C360D0F8043255
:1030BC000BB10323C360022200F10C0100F008F9EC
:1030CC0008BDFFF7B1FE08BD10B5044690F8FC3101
:1030DC00023B012B0DD84B88012B0CD10023C0F8DF
:1030EC000432D0F814329B689847204600F01EF941
:1030FC0010BDFFF799FE10BD08B54B78092B1BD8F6
:10310C00DFE803F011171A141A08051A0E0BFFF753
:10311C0095FE13E0FFF72AFF10E0FFF74DFF0DE0DF
:10312C00FFF79EFF0AE0FFF7B9FF07E0FFF758FE35
:10313C0004E0FFF7C9FF01E0FFF776FE002008BDB1
:10314C0038B504460D4690F8FC31032B0FD10B79A2
:10315C00012B09D8D0F814329B689847EB8843B9F7
:10316C00204600F0E3F804E0FFF75EFE01E0FFF715
:10317C005BFE002038BD00BF38B505460C468A887A
:10318C000B7803F06003202B04D1D0F814329B6829
:10319C0098477DE0D1B26378012B26D0002B48D024
:1031AC00032B75D190F8FC31022B02D0032B07D0E6
:1031BC0017E000296CD080296AD001F0EDF967E0A6
:1031CC00638823B919B1802901D001F0E5F9D5F84C
:1031DC0014329B68214628469847284600F0A6F8EA
:1031EC0056E02146FFF720FE52E090F8FC31022B0E
:1031FC0002D0032B07D018E0002949D0802947D0F2
:10320C0001F0CAF944E06388002B41D111F07F0F23
:10321C0007D001F0D1F9D5F814329B682146284625
:10322C009847284600F082F832E02146FFF7FCFD73
:10323C002EE090F8FC31022B02D0032B06D024E0B8
:10324C0011F07F0F24D001F0A7F921E012F0800FCC
:10325C0006D001F07F04013400EB0414043405E0C3
:10326C0001F07F04103400EB04140434284601F000
:10327C00B3F910B10123236001E000232360022283
:10328C002146284600F024F802E02146FFF7CCFD49
:10329C00002038BDD0B170B50D4616460446FFF778
:1032AC0095FD0130400080B23080287003236B7094
:1032BC00022307E05A1CD2B20134E9540233DBB2C8
:1032CC000021A95421780029F4D170BD704700BFAA
:1032DC0010B513460222C0F8F4218361C3610A467B
:1032EC00002101F09DF9002010BD00BF08B5134668
:1032FC000A46002101F094F9002008BD10B51346D0
:10330C000322C0F8F421C0F80831C0F80C310A4689
:10331C00002101F095F9002010BD00BF08B513463F
:10332C000A46002101F08CF9002008BD08B50423E1
:10333C00C0F8F43100231A46194601F071F9002047
:10334C0008BD00BF08B50523C0F8F43100231A46A8
:10335C00194601F075F9002008BD00BF842801D082
:10336C00033070470020704708B500F0ABF900201F
:10337C0008BD00BFF0B587B00F4644680568066904
:10338C00B0F90800FFF7EAFF00230393029305ABA3
:10339C00019300903B46B2B22946204600F00CF94E
:1033AC00012801D1059800E0002007B0F0BD00BF56
:1033BC0008B508B90120FFE700F0AEFA002008BDFF
:1033CC0008B500F04FFB012801D000F001FC08BD4E
:1033DC0000F1080343604FF0FF328260C360036169
:1033EC0000230360704700BF00230361704700BFD8
:1033FC0043684B609A688A609A685160996008616A
:10340C00036801330360704730B40D68B5F1FF3FBA
:10341C0001D1026907E000F1080200E01A46536886
:10342C001C68A542FAD253684B6099608A6051605F
:10343C00086103680133036030BC7047036942685C
:10344C00816891608268416851605A68904201D1EC
:10345C0082685A600022026118680138186070474F
:10346C00094B1B681B680BB9012300E0002323B137
:10347C004FF0FF32044B5A607047034B1A68D26806
:10348C00D26852685A6070478801002038B50C46E3
:10349C0019B9800000F060FC044654B1542000F0CF
:1034AC005BFC054608B1046304E0204600F0C8FC50
:1034BC0000E00025284638BD10B50446006B00F02E
:1034CC00BFFC204600F0BCFC10BD00BF70B504462C
:1034DC001546002306E0C85CE21882F83400CA5C8A
:1034EC0012B101330F2BF6D9002384F84330062D8B
:1034FC0000D90625E56265640026A664201DFFF749
:10350C0073FF04F11800FFF76FFF2461C5F1070585
:10351C00A5616462E66484F8506070BD70B50024E7
:10352C0006E01420114B00FB0430FFF751FF01346F
:10353C00062CF6D90E4C04F1BC063046FFF748FFBA
:10354C0004F1D0052846FFF743FF04F11C00FFF7F8
:10355C003FFF04F1E400FFF73BFF04F10800FFF725
:10356C0037FF2660C4F8F85070BD00BFB8010020CA
:10357C008801002038B50F4BD3F8FC205060D3F8ED
:10358C000031984208D20B4BD3F8F800D3F8FC105A
:10359C000431FFF739FF38BD0446064D2868D5F8CD
:1035AC00FC100431FFF730FF6B689C4200D26C605A
:1035BC0038BD00BF880100202DE9F04F83B00C9E70
:1035CC00DDF8348010B900F09BFAFEE78B46174605
:1035DC009A468146062E02D900F092FAFEE70E9921
:1035EC001046FFF753FF0446002855D0036B07F134
:1035FC008045013D03EB850323F0070500970F9BE6
:10360C0032465946FFF762FF52464946284600F0BB
:10361C0049FA2060B8F1000F01D0C8F8004000F062
:10362C0085FA274BD3F804210132C3F80421D3F8CF
:10363C00FC304BB9224BC3F8FC40D3F80431012BBE
:10364C000FD1FFF76BFF0CE01D4BD3F8083143B9DA
:10365C001B4BD3F8FC30DB6A9E4202D3184BC3F8E9
:10366C00FC40174BD3F80C210132C3F80C21E26A51
:10367C00012505FA02F0D3F810110143C3F810111B
:10368C00303302EB82029000211D1844FFF7B0FE8C
:10369C0000F06AFA2C4601E04FF0FF34012C0BD1FC
:1036AC00074BD3F808313BB1054BD3F8FC30DB6A40
:1036BC009E4201D900F018FA204603B0BDE8F08F05
:1036CC008801002000B585B0002303930293019379
:1036DC00009380220D490E48FFF76EFF01280ED192
:1036EC0000F00EFA0B4B4FF0FF325A600122C3F878
:1036FC0008210022C3F8002100F090FA03E010B971
:10370C0000F0FEF9FEE705B05DF804FB9C490008EB
:10371C00D939000888010020034AD2F81831013346
:10372C00C2F81831704700BF880100202DE9F04124
:10373C00414BD3F81831002B6DD13F4BD3F80021FE
:10374C000132C3F80021D3F800719FB91B681B68C4
:10375C0013B100F0D5F9FEE7374B1A68D3F8F8101F
:10376C001960C3F8F820D3F81C210132C3F81C21CE
:10377C00FFF776FE304B5B689F4203D200243EE09D
:10378C00012400E000242C4B1B681B680BB901239F
:10379C0000E0002323B14FF0FF32274B5A602EE09C
:1037AC00254B1B68DB68DD686B689F4202D2224A9E
:1037BC00536024E005F104084046FFF73FFEAB6A76
:1037CC001BB105F11800FFF739FEEB6A012202FA72
:1037DC0003F1194ED6F810210A43C6F8102106F150
:1037EC00300003EB83039A0041461044FFF700FEC0
:1037FC00EA6AD6F8FC30DB6A9A42C1D2C3E70E49BA
:10380C00D1F8FC30DB6A03EB83039A000A44136B98
:10381C00012B08D808E0084AD2F820310133C2F84D
:10382C002031002400E00124034BD3F8243103B1F0
:10383C0001242046BDE8F0818801002070B5354B8D
:10384C00D3F8183113B900F05BF9FEE700F06EF90C
:10385C00304BD3F81821013AC3F81821D3F818319A
:10386C00002B4FD12B4BD3F804313BBB00244CE045
:10387C00284CA36ADD6805F11800FFF7DFFD2E1D4B
:10388C003046FFF7DBFDEB6A012202FA03F1D4F8B4
:10389C0010210A43C4F8102104F1300003EB830318
:1038AC009A0031461044FFF7A3FDEA6AD4F8FC30C5
:1038BC00DB6A9A4202D30122C4F82421154BDB693E
:1038CC00002BD5D1134BD3F820316BB911E0FFF796
:1038DC002DFF18B101220F4BC3F824210D4AD2F849
:1038EC002031013BC2F820310A4BD3F82031002B98
:1038FC00EDD1084BD3F82431012B05D100F0F4F8AD
:10390C00012402E0002400E0002400F02DF9204600
:10391C0070BD00BF8801002010B530B30446154BB4
:10392C00D3F8183113B100F0EBF8FEE7FFF7F4FE13
:10393C00104BD3F800211444D3F8FC000430FFF7EB
:10394C007DFD60B90B4BD3F8FC20D16A012202FA41
:10395C0001F1D3F8102122EA0102C3F8102120460C
:10396C00FFF708FEFFF76AFF00E0002008B900F03F
:10397C00BBF810BD8801002038B51FE0FFF7CCFE66
:10398C00114BD3F8E440FFF759FFBCB100F0CEF86F
:10399C000D4CD4F8F030DD68281DFFF74FFDD4F83E
:1039AC000431013BC4F80431D4F81431013BC4F8A0
:1039BC00143100F0D9F82846FFF77EFD024BD3F8FE
:1039CC001431002BDAD138BD8801002008B5FFF77F
:1039DC00D3FF034B1B6B012BF9D900F085F8F6E7ED
:1039EC00880100201E4BD3F8183123B101221C4B47
:1039FC00C3F82421704710B519490023C1F82431AC
:103A0C00D1F81031B3FA83F3DBB2C3F11F0303EB2C
:103A1C00830082000A44126B12B900F071F8FEE7C1
:103A2C000F489900CC18A2000244546B646854638C
:103A3C00303019448A0008320244944206D160683E
:103A4C0003EB83018A0006490A445063044903EBE3
:103A5C0083039A000A44536BDB68C1F8FC3010BD39
:103A6C0088010020064BD3F808312BB1044BD3F856
:103A7C0018311BB902207047012070470020704795
:103A8C008801002006480068006880F3088862B648
:103A9C0061B6BFF34F8FBFF36F8F00DF00BF000025
:103AAC0008ED00E04FF0807340F8043C40F8081C2F
:103ABC00034B40F80C3C40F8202C4038704700BFBA
:103ACC001D3B0008074B19680868B0E8F00F80F33D
:103ADC000988BFF36F8F4FF0000080F311884EF010
:103AEC000D0E7047840200204FF08052034B1A6079
:103AFC00BFF34F8FBFF36F8F704700BF04ED00E033
:103B0C00EFF311804FF0500181F3118870470020C2
:103B1C0008B5054B1B68B3F1FF3F02D0FFF7F0FF70
:103B2C00FEE7FFF7EDFFFEE71001002008B5FFF7F9
:103B3C00E7FF094A136801331360BFF34F8FBFF3DC
:103B4C006F8F012B07D1054B1B6813F0FF0F02D0B1
:103B5C00FFF7D6FFFEE708BD1001002004ED00E0E2
:103B6C0080F31188704700BF08B5074B1B6813B969
:103B7C00FFF7C6FFFEE7013B034A136013B90020B1
:103B8C00FFF7EEFF08BD00BF10010020EFF3098026
:103B9C00BFF36F8F0D4B1A6820E9F00F10602DE901
:103BAC0008404FF0500080F31188FFF71BFF4FF0D7
:103BBC00000080F31188BDE8084019680868B0E877
:103BCC00F00F80F30988BFF36F8F704784020020D9
:103BDC0008B5FFF795FFFFF7A9FD18B14FF080521C
:103BEC00024B1A600020FFF7BBFF08BD04ED00E09C
:103BFC00064B1B68064AA2FB03239B09013B054AA3
:103C0C0013600722044B1A60704700BF1401002098
:103C1C00D34D621014E000E010E000E000B583B07A
:103C2C001E4B1A78D2B20192FF221A701B78DBB2AB
:103C3C008DF803309DF80330194A03F050031370CC
:103C4C000723536009E0164A5368013B53609DF803
:103C5C0003305B00DBB28DF803309DF8033013F0BA
:103C6C00800FF0D10E4A53681B0203F4E0635360DB
:103C7C00019BDBB2094A13700A4B1A6842F47002BA
:103C8C001A601A6842F070421A60FFF7B1FF002206
:103C9C00054B1A60FFF7F6FEFFF73AFF00E400E071
:103CAC00B002002020ED00E010010020134A12F0B9
:103CBC00070F07D0D11D21F00701C1F54063134454
:103CCC000A4601E04FF440630C49C1F8002C002077
:103CDC00C1F8040C1344083B23F00703C1F8083C5B
:103CEC0058601860981A50601360C1F80C0CC1F839
:103CFC00100C4FF00043C1F8143C7047B802002080
:103D0C00134A00E01A4613688342FBD310B451687F
:103D1C005418A04203D140680144516010464168D8
:103D2C004418A3420DD10B4CD4F8084CA34206D036
:103D3C005B681944416013681B68036002E004600F
:103D4C0000E00360904200D0106010BC704700BFD0
:103D5C00B80E0020B802002070B50446FFF7DCFC5A
:103D6C00364BD3F8083C0BB9FFF7A0FF334BD3F815
:103D7C00143C1C4250D164B1083414F0070F08D025
:103D8C0024F00704083404F0070313B1FFF7B8FE5E
:103D9C00FEE7002C42D0294BD3F8103C9C423FD874
:103DAC00264BD3F8005C03F5406301E02B46154627
:103DBC006A68944202D92A68002AF7D11F4AD2F8BD
:103DCC00082C95422ED01E6808362A681A606B683B
:103DDC001B1B102B0AD9281910F0070F02D0FFF764
:103DEC008FFEFEE743606C60FFF78AFF6A68134939
:103DFC00D1F8103C9B1AC1F8103CD1F80C1C8B422A
:103E0C0002D20E49C1F80C3C0C4BD3F8143C1A43AB
:103E1C006A6000232B6006E0002604E0002602E026
:103E2C00002600E00026FFF709FD16F0070F02D070
:103E3C00FFF766FEFEE7304670BD00BFB8020020FB
:103E4C0050B338B50446A0F1080550F8043C134AA9
:103E5C00D2F8142C13EA020002D1FFF751FEFEE750
:103E6C0054F8081C11B1FFF74BFEFEE798B191B95D
:103E7C0023EA020344F8043CFFF74EFC54F8043CDC
:103E8C00064AD2F8101C0B44C2F8103C2846FFF727
:103E9C0037FFFFF7D3FC38BD704700BFB8020020D6
:103EAC0008B500F033FA00F04BFC0120FFF780FA64
:103EBC00FBE700BF70B58AB00D4C05AD26460FCEA2
:103ECC000FC533682B60002105A8FFF753FA094B87
:103EDC0018606D4614340FCC0FC523682B6000217D
:103EEC006846FFF747FA044B18600AB070BD00BF74
:103EFC005C4900080011002004110020F0B589B0C5
:103F0C00284B9A6942F010029A619A6902F01002E9
:103F1C000092009A9A6942F020029A619A6902F022
:103F2C0020020192019A9A6942F004029A619A69FC
:103F3C0002F004020292029A9A6942F008029A6113
:103F4C009B6903F008030393039B174F0022202166
:103F5C003846FCF79BFA154C00224FF400712046B2
:103F6C00FCF794FA4FF40053049300230593069343
:103F7C0004A92046FCF796F9202304930126059604
:103F8C000225079504A93846FCF78CF94FF4007309
:103F9C0004930596079504A92046FCF783F909B00C
:103FAC00F0BD00BF001002400008014000100140AD
:103FBC0008B50268024B9A4201D1FCF7E1F808BD42
:103FCC0000080040FEE700BF00B595B001230A933E
:103FDC004FF4A0220B9200220C920E930223119309
:103FEC004FF4803312934FF4E01313930AA8FCF7A9
:103FFC00F5FE18B19A211C48FFF7E4FF0F23059337
:10400C0002210691002307934FF4806208920993D2
:10401C0005A8FDF723FA18B1A8211348FFF7D2FF22
:10402C00112301934FF4407302930023049301A8CE
:10403C00FDF75AFB18B1B0210B48FFF7C3FFFDF792
:10404C00FFFA0A4BA3FB00308009FCF705F90420AA
:10405C00FCF718F900220F214FF0FF30FCF7BEF8E7
:10406C0015B05DF804FB00BFB8490008D34D6210D1
:10407C0008B5FCF773F8FFF7A7FFFFF73FFF00F059
:10408C0005F900F005F8FFF715FFFFF76DF9FEE7EE
:10409C0008B50848084B03604FF0FF3343604FF4FA
:1040AC0080738360FDF7AAFC18B146210348FFF723
:1040BC0089FF08BD0811002000280040C8490008ED
:1040CC0002680F4B9A421AD100B583B0FCF778FE08
:1040DC000C4BDA6942F00062DA61DB6903F00063D1
:1040EC000193019B4FF4004393FAA3F3B3FA83F3C8
:1040FC000121054A42F8231003B05DF804FB704718
:10410C0000280040001002400004424200B583B079
:10411C00204B9A6942F001029A619B6903F00103FA
:10412C000193019B0320FCF747F8002211466FF026
:10413C000B00FCF753F8002211466FF00A00FCF755
:10414C004DF8002211466FF00900FCF747F80022E9
:10415C0011466FF00400FCF741F8002211466FF095
:10416C000300FCF73BF800220F216FF00100FCF775
:10417C0035F800220F214FF0FF30FCF72FF8064ADC
:10418C00536823F0E06343F00073536003B05DF8B1
:10419C0004FB00BF001002400000014000B589B0D4
:1041AC00002201461E20FCF719F81E20FCF748F8E7
:1041BC00154BDA6942F00402DA61DB6903F004039F
:1041CC000193019B02A903A8FDF770FAFDF73EFAD3
:1041DC0040000E4BA3FB00239B0C013B0C480D4AEB
:1041EC00026040F2E732C2604360002303618360E7
:1041FC00FDF76CFD18B90648FDF766FC00E00120E0
:10420C0009B05DF804FB00BF0010024083DE1B43C5
:10421C001C1100200008004008B5FFF7D1F808BDBC
:10422C0008B50248FCF7B0FC08BD00BFC413002061
:10423C0008B50248FDF75CFC08BD00BF1C1100204E
:10424C000F4B1A6842F001021A6059680D4A0A4075
:10425C005A601A6822F0847222F480321A601A684A
:10426C0022F480221A605A6822F4FE025A604FF43B
:10427C001F029A604FF00062034B9A60704700BFB8
:10428C00001002400000FFF800ED00E008B50B48FC
:10429C000B4B03604FF4E133436000238360C36036
:1042AC0003610C2242618361C361FDF70DFE18B1FD
:1042BC004C210448FFF786FE08BD00BF58110020B2
:1042CC0000440040D849000802680E4B9A4218D1AD
:1042DC0000B587B003F5E633DA6942F40032DA61EF
:1042EC00DB6903F400330193019B0C23029302233B
:1042FC000393059302A90448FBF7D4FF07B05DF8BC
:10430C0004FB7047004400400008014010B5094C04
:10431C00002209492046FEF725FC08492046FEF7F5
:10432C0039FC07492046FEF7D5FB2046FEF73AFC40
:10433C0010BD00BF9811002040010020D8000020C3
:10434C001801002010B5064C01462046FEF7D2FBA2
:10435C002046FEF7EDFB00F087FA002010BD00BFF1
:10436C0098110020202804D108B500F077FA00201D
:10437C0008BD0020704700BF08B500F067FA0020A8
:10438C0008BD00BF10B5074C002207492046FEF7B8
:10439C00A9FB06492046FEF7ADFB00F04FFA0020C2
:1043AC0010BD00BF98110020C0130020BC130020CA
:1043BC00094BD3F81832D3F8143253B910B50A4656
:1043CC000146054C2046FEF78DFB2046FEF798FB78
:1043DC0010BD0120704700BF9811002002680E4BE1
:1043EC009A4217D100B583B003F5DA33DA6942F497
:1043FC000002DA61DB6903F400030193019B0022E4
:10440C0005211420FBF7EAFE1420FBF719FF03B07B
:10441C005DF804FB704700BF005C004008B500F578
:10442C007B71D0F81C04FEF7D9FB08BD08B500EB76
:10443C004113D3F81C22D0F81C04FEF7FDFB08BD79
:10444C0008B500EB4113DA6BD0F81C04FEF728FC1E
:10445C0008BD00BF08B5D0F81C04FEF7ABFC08BDC6
:10446C0010B504460121D0F81C04FEF78FFCD4F8DB
:10447C001C04FEF76BFC10BD10B50446D0F81C04F0
:10448C00FEF788FCA36923B1024A136943F00603C3
:10449C00136110BD00ED00E008B5D0F81C04FEF768
:1044AC0083FC08BD10B504461F48C0F81C44C4F872
:1044BC0020021E4B03600823436002238360032306
:1044CC00C36000238361C3610362FBF7E5FF20B186
:1044DC004FF48D711648FFF775FD18230022114615
:1044EC00D4F82002FCF750FC582300228021D4F889
:1044FC002002FCF749FCC02300228121D4F82002C1
:10450C00FCF742FC4FF4887300220121D4F82002FE
:10451C00FCF73AFC4FF4807300228221D4F820027D
:10452C00FCF732FC002010BDC4130020005C0040DE
:10453C00E849000808B5D0F82002FCF71BF810B1C8
:10454C00022802D003E0002008BD012008BD022093
:10455C0008BD00BF10B51C4613462246D0F82002F9
:10456C00FCF734F810B1022802D003E0002010BD93
:10457C00012010BD022010BD08B5D0F82002FCF7B8
:10458C004FF810B1022802D003E0002008BD012032
:10459C0008BD022008BD00BF08B5D0F82002FCF70A
:1045AC009DFB10B1022802D003E0002008BD0120C1
:1045BC0008BD022008BD00BF08B5D0F82002FCF7EA
:1045CC00BBFB10B1022802D003E0002008BD012083
:1045DC0008BD022008BD00BFD0F8202211F0800FCA
:1045EC0006D001F07F0302EB431191F82A007047CB
:1045FC0001F07F0102EB411191F80A02704700BFF4
:10460C0008B5D0F82002FBF7CDFF10B1022802D07C
:10461C0003E0002008BD012008BD022008BD00BF3A
:10462C0008B5D0F82002FCF757F810B1022802D0D8
:10463C0003E0002008BD012008BD022008BD00BF1A
:10464C0008B5D0F82002FCF713F810B1022802D0FC
:10465C0003E0002008BD012008BD022008BD00BFFA
:10466C0008B5D0F82002FCF72FF808BD00487047B9
:10467C00D00E0020704700BF704700BF12230B8084
:10468C00004870472801002004230B800048704725
:10469C003C01002008B50A4620B905490548FEF73B
:1046AC00F9FD03E002490348FEF7F4FD004808BD9C
:1046BC00E4170020FC49000810B5044C0A462146BA
:1046CC000348FEF7E7FD204610BD00BFE4170020AD
:1046DC00144A000808B50A4620B905490548FEF7F2
:1046EC00D9FD03E002490348FEF7D4FD004808BD9C
:1046FC00E4170020284A000808B50A4620B90549E5
:10470C000548FEF7C7FD03E002490348FEF7C2FD6A
:10471C00004808BDE4170020384A000808B50A46CE
:10472C0020B905490548FEF7B5FD03E002490348E9
:10473C00FEF7B0FD004808BDE4170020444A00080D
:10474C0008B54FF47A70FFF7E7F8FAE770B5002276
:10475C004FF400713648FBF799FE01241CE0354DEF
:10476C00012220212846FBF791FE6420FFF7D4F8A4
:10477C00002220212846FBF789FE4FF49660FFF7B4
:10478C00CBF84FF400512A48FBF778FE00B900240F
:10479C00294A136801331360002CE0D101224FF435
:1047AC0000712348FBF772FE01241AE0214D01220F
:1047BC0020212846FBF76AFE4FF42F70FFF7ACF868
:1047CC00002220212846FBF761FE4FF49670FFF77C
:1047DC00A3F8194B1B7903B10024174A93680133D2
:1047EC009360002CE2D1144B1B790BB9012600E02D
:1047FC000226114B1B7B03B10136002411E00D4D39
:10480C00012220212846FBF741FE9620FFF784F871
:10481C00002220212846FBF739FEC820FFF77CF840
:10482C000134A642EBDC4FF4E160FFF775F8DAE7F0
:10483C000010014000080140F0100020024B012242
:10484C001A7100221A737047F0100020024B0022DC
:10485C001A711A73704700BFF01000200022014B30
:10486C001A737047F010002008B508210148FFF7B3
:10487C009FFD08BD5C010020002103E00B4B5B5841
:10488C00435004310A480B4B42189A42F6D30A4A59
:10489C0002E0002342F8043B084B9A42F9D3FFF79D
:1048AC00CFFC00F00FF8FFF7E3FB70475C4A000801
:1048BC00000000206401002064010020E4190020A5
:1048CC00FEE700000E4B70B51E460E4C0025E41A98
:1048DC00A410A54204D056F8253098470135F8E7C6
:1048EC0000F016F8084B094C1E46E41AA4100025DB
:1048FC00A54204D056F8253098470135F8E770BD2D
:10490C00544A0008544A0008544A0008584A0008FF
:10491C00F8B500BFF8BC08BC9E467047F8B500BFA0
:08492C00F8BC08BC9E46704770
:1049340002030405060708090A0B0C0D0E0F1010DC
:104944000102000002030405060708090A0B0C0D06
:104954000E0F101001020000AC490008AD3E000823
:10496400000000000000000080000000A4490008CE
:1049740059470008FDFF000000000000800000000F
:1049840000000000000000000102030406070809FB
:10499400000000000102030449444C4500000000EB
:1049A400544E43444300000064656661756C74545E
:1049B40061736B002E2E2F5372632F6D61696E2EFF
:1049C400630000002E2E2F5372632F7274632E63C4
:1049D400000000002E2E2F5372632F7573617274C2
:1049E4002E6300002E2E2F5372632F757362645F43
:1049F400636F6E662E63000053544D333220566944
:104A0400727475616C20436F6D506F727400000096
:104A140053544D6963726F656C656374726F6E692C
:104A2400637300003030303030303030303031415A
:104A34000000000043444320436F6E666967000032
:104A440043444320496E74657266616365000000E7
:044A54003101000824
:044A58000D01000844
:104A5C0009024300020100C03209040000010202F5
:104A6C0001000524001001052401000104240202A8
:104A7C000524060001070582030800100904010043
:104A8C00020A000000070501024000000705810230
:104A9C004000000009024300020100C0320904007A
:104AAC00000102020100052400100105240100018F
:104ABC0004240202052406000107058203080010E5
:104ACC0009040100020A00000007050102000200AF
:104ADC00070581020002000009074300020104C01F
:104AEC003209040000010202010005240010010536
:104AFC00240100010424020205240600010705829A
:104B0C00030800FF09040100020A00000007050168
:104B1C000240000007058102400000000A06000266
:104B2C000000004001000000492A00080D2A00087E
:104B3C00992900080000000011290008FD28000830
:104B4C0069290008000000000000000000000000BF
:104B5C004529000839290008512900085D29000859
:104B6C00AAAAAAAA00A24A049143000885430008F5
:104B7C007143000851430008120100020202004078
:104B8C0083044057000201020301000004030904DE
:104B9C008946000895460008C5460008A14600084D
:104BAC00E1460008054700082947000848656C6C79
:044BBC006F0D0A006F
:040000050800488522
:00000001FF
